:100000000C9462000C948A000C948A000C948A0070
:100010000C948A000C948A000C948A000C948A0038
:100020000C948A000C948A000C948A000C948A0028
:100030000C948A000C948A000C948A000C948A0018
:100040000C949E010C948A000C94D1030C9414041B
:100050000C948A000C948A000C948A000C948A00F8
:100060000C948A000C948A00000000070002010032
:100070000003040600000000000000000102040864
:100080001020408001020408102001020408102002
:10009000040404040404040402020202020203032E
:1000A00003030303000000002300260029000000D2
:1000B0000000250028002B0000000000240027007D
:1000C0002A00CA0411241FBECFEFD8E0DEBFCDBF87
:1000D00011E0A0E0B1E0E4EFFCE002C005900D9279
:1000E000A837B107D9F712E0A8E7B1E001C01D9227
:1000F000AB32B107E1F710E0C4ECD0E004C02297C6
:10010000FE010E947406C23CD107C9F70E94200577
:100110000C9478060C9400008EBD0DB407FEFDCF44
:100120008EB508950E941E0661E08AE00E94A10239
:1001300040E052EC61E070E081E891E00E944F0401
:1001400061E085E00E94A10260E085E00E94DA02A1
:1001500061E084E00E94A10260E082E00E94A102CE
:1001600061E086E00E94A10261E087E00E94A102B6
:1001700061E084E00E94DA0261E086E00E94DA0237
:1001800061E087E00E94DA0280E00E9434068CE0A1
:100190000E943D0680E00E94420660E084E00E94EA
:1001A000DA0264EF71E080E090E00E940B0261E00F
:1001B00084E00E94DA028AE40E948C0040E150E070
:1001C000682F81E891E00E94000666E071E081E816
:1001D00091E00E94880561E085E00E94DA0264EF08
:1001E00071E080E090E00C940B02EF92FF920F938D
:1001F0001F93CF93DF938C017B0160E087E00E9427
:10020000DA0282E00E941003892B31F463E171E08D
:1002100081E891E00E94880582E00E941003892B0A
:1002200019F064E271E0F4CF60E086E00E94DA0247
:1002300083E090E00E94310261E086E00E94DA02F1
:1002400080E00E948C00C82F6AE471E081E891E0B0
:100250000E946B0540E150E06C2F81E891E00E9424
:100260000706C7FF32C061E087E00E94DA02E801BA
:100270002196CE01801B910B8E159F05D4F465E568
:1002800071E081E891E00E946B0560E086E00E94E9
:10029000DA0283E090E00E94310261E086E00E9491
:1002A000DA0289910E948C0084E690E00E9431027B
:1002B000E0CF67E571E081E891E0DF91CF911F9198
:1002C0000F91FF90EF900C948805DF91CF911F91D3
:1002D0000F91FF90EF900895CF93DF93CDB7DEB7E6
:1002E00028970FB6F894DEBF0FBECDBFCE010196A2
:1002F00028E0FC0111922A95E9F725EA298321E0FB
:100300002A832BE42B832EEE2C8364E070E00E9482
:10031000F50064EF71E080E090E00E940B0269E577
:1003200071E081E891E00E94880528960FB6F89464
:10033000DEBF0FBECDBFDF91CF9108951F920F9208
:100340000FB60F9211242F933F938F939F93AF93E8
:10035000BF938091790190917A01A0917B01B09136
:100360007C013091780126E0230F2D3720F402968E
:10037000A11DB11D05C029E8230F0396A11DB11DC4
:10038000209378018093790190937A01A0937B0167
:10039000B0937C0180917D0190917E01A0917F01BD
:1003A000B09180010196A11DB11D80937D019093B4
:1003B0007E01A0937F01B0938001BF91AF919F9187
:1003C0008F913F912F910F900FBE0F901F90189516
:1003D0003FB7F89480917D0190917E01A0917F01BB
:1003E000B091800126B5A89B05C02F3F19F001965A
:1003F000A11DB11D3FBF6627782F892F9A2F620F4D
:10040000711D811D911D43E0660F771F881F991F85
:100410004A95D1F70895CF92DF92EF92FF92CF9352
:10042000DF936B017C010E94E801EB01C114D10450
:10043000E104F10479F00E94E8016C1B7D0B683E39
:100440007340A0F381E0C81AD108E108F108C8514F
:10045000DC4FECCFDF91CF91FF90EF90DF90CF900A
:1004600008958130910541F00297009729F0880F97
:10047000991F01970197F1F70895789484B58260E8
:1004800084BD84B5816084BD85B5826085BD85B538
:10049000816085BDEEE6F0E0808181608083E1E8E7
:1004A000F0E010828081826080838081816080831F
:1004B000E0E8F0E0808181608083E1EBF0E0808122
:1004C00084608083E0EBF0E0808181608083EAE7F4
:1004D000F0E080818460808380818260808380817D
:1004E000816080838081806880831092C10008953C
:1004F000833081F028F4813099F08230A1F00895A2
:100500008630A9F08730B9F08430D1F48091800032
:100510008F7D03C0809180008F7780938000089545
:1005200084B58F7702C084B58F7D84BD0895809196
:10053000B0008F7703C08091B0008F7D8093B000B2
:100540000895CF93DF9390E0FC01E458FF4F24918E
:10055000FC01E057FF4F8491882349F190E0880F18
:10056000991FFC01E854FF4FA591B49182559F4F0C
:10057000FC01C591D4919FB7611108C0F8948C918A
:10058000209582238C93888182230AC0623051F4A3
:10059000F8948C91322F309583238C938881822B11
:1005A000888304C0F8948C91822B8C939FBFDF9139
:1005B000CF9108950F931F93CF93DF931F92CDB7E1
:1005C000DEB7282F30E0F901E859FF4F8491F90197
:1005D000E458FF4F1491F901E057FF4F04910023B5
:1005E000C9F0882321F069830E9478026981E02F95
:1005F000F0E0EE0FFF1FE255FF4FA591B4919FB7BA
:10060000F8948C91611103C01095812301C0812B56
:100610008C939FBF0F90DF91CF911F910F91089501
:10062000CF93DF93282F30E0F901E859FF4F8491F1
:10063000F901E458FF4FD491F901E057FF4FC491FD
:10064000CC2391F081110E947802EC2FF0E0EE0FA4
:10065000FF1FEC55FF4FA591B4912C912D2381E004
:1006600090E021F480E002C080E090E0DF91CF9143
:100670000895FC0124853585F901E05CFF4F8081F8
:100680009181F901EE5BFF4F20813181821B930B39
:100690008F7399270895FC0184859585FC01E05CA2
:1006A000FF4F40815181FC01EE5BFF4F2081318182
:1006B0004217530741F00190F081E02DE80FF91F38
:1006C000808190E008958FEF9FEF0895FC0184856D
:1006D0009585FC01E05CFF4F40815181FC01EE5BA0
:1006E000FF4F208131814217530779F0A081B181FA
:1006F000A80FB91F8C91208131812F5F3F4F2F733D
:1007000033273183208390E008958FEF9FEF089582
:10071000FC0181A1882329F0A489B5898C9186FFE9
:10072000FBCF11A20895CF93DF93FC012685378577
:10073000D901A05CBF4F8D919C91119701968F7349
:100740009927E901CE5BDF4F4881598184179507CE
:10075000D9F30D90BC91A02DA20FB31F6C93A68569
:10076000B785A05CBF4F11969C938E93A689B789DD
:100770002C9181E090E0078C02C0880F991F0A94A9
:10078000E2F7282B2C9381E081A30488F589E02DE2
:1007900080818064808381E090E0DF91CF91089533
:1007A00008951F920F920FB60F9211242F933F932B
:1007B0004F938F939F93EF93FF938091C00082FD9F
:1007C0001CC04091C600809127029091280201969A
:1007D0008F7399272091290230912A02821793075B
:1007E00071F0E0912702F0912802E951FE4F408319
:1007F000909328028093270202C08091C600FF9147
:10080000EF919F918F914F913F912F910F900FBE3C
:100810000F901F90189581E891E00E943903892B71
:1008200011F00C94D00308951F920F920FB60F92FF
:1008300011242F933F938F939F93EF93FF932091D6
:10084000E3013091E4018091E5019091E6012817E0
:10085000390731F48091C1008F7D8093C10014C0AD
:10086000E091E501F091E601ED55FE4F2081809188
:10087000E5019091E60101968F7399279093E60127
:100880008093E5012093C600FF91EF919F918F9196
:100890003F912F910F900FBE0F901F901895CF9200
:1008A000DF92EF92FF92CF93DF93EC016A017B011D
:1008B000EC89FD8981E090E008A002C0880F991FB3
:1008C0000A94E2F7808360E874E88EE190E0A70183
:1008D00096010E945006215031094109510956954F
:1008E000479537952795211580E1380798F0EC89D1
:1008F000FD89108260E472E48FE090E0A701960128
:100900000E945006215031094109510956954795D9
:1009100037952795E889F9893083EA89FB8920830F
:1009200019A2EE89FF89408181E090E09C010C8C46
:1009300002C0220F331F0A94E2F7422B4083EE8954
:10094000FF8940819C010D8C02C0220F331F0A9445
:10095000E2F7422B4083EE89FF8940819C010E8C97
:1009600002C0220F331F0A94E2F7422B4083EE8924
:10097000FF8920810F8C02C0880F991F0A94E2F72B
:10098000809582238083DF91CF91FF90EF90DF905D
:10099000CF900895109284011092830188EE93E025
:1009A000A0E0B0E08093850190938601A093870139
:1009B000B09388018BE691E090938201809381014E
:1009C00087EE91E090938E0180938D0183EA91E010
:1009D0009093900180938F0185EC90E09093920129
:1009E0008093910184EC90E0909394018093930123
:1009F00080EC90E0909396018093950181EC90E0DB
:100A0000909398018093970182EC90E090939A01E3
:100A10008093990186EC90E090939C0180939B01D8
:100A200084E080939D0183E080939E0187E0809322
:100A30009F0185E08093A00181E08093A10108954A
:100A40000E943D020E949200CBE0D4E00E946C0123
:100A50002097E1F30E940B04F9CFCF92DF92EF923F
:100A6000FF920F931F93CF93DF936C017A01EB01F9
:100A7000E60EF71E00E010E0CE15DF0561F069918B
:100A8000D601ED91FC910190F081E02DC601099510
:100A9000080F191FF1CFC801DF91CF911F910F915E
:100AA000FF90EF90DF90CF9008956115710581F070
:100AB000DB010D900020E9F7AD0141505109461BC3
:100AC000570BDC01ED91FC910280F381E02D09943C
:100AD00080E090E008950C945505DC01ED91FC91C7
:100AE0000190F081E02D09940F931F93CF93DF9332
:100AF000EC016DE00E946D058C016AE0CE010E9460
:100B00006D05800F911FDF91CF911F910F91089577
:100B10000F931F93CF93DF93EC010E9455058C0137
:100B2000CE010E947405800F911FDF91CF911F911C
:100B30000F9108958F929F92AF92BF92CF92DF92C2
:100B4000EF92FF920F931F93CF93DF93CDB7DEB752
:100B5000A1970FB6F894DEBF0FBECDBF7C01C42EA7
:100B6000E52FCB01D22E19A221E02D1510F02AE09D
:100B7000D22E8E010F5D1F4F8D2C912CA12CB12CEC
:100B80006C2D7E2FA50194010E9450068C2DD29EC3
:100B900080191124015011098A3010F4805D01C0C0
:100BA000895CF8018083211531054105510521F04B
:100BB000C22EE32FCA01E4CFB801C7010E94550538
:100BC000A1960FB6F894DEBF0FBECDBFDF91CF91D7
:100BD0001F910F91FF90EF90DF90CF90BF90AF905B
:100BE0009F908F9008952115310541F4DC01ED911E
:100BF000FC910190F081E02D642F09940C949A05EA
:100C00009A01462F50E060E070E00C94F3050F93DA
:100C10001F93CF93DF93EC019A01462F50E060E0E1
:100C200070E00E94F3058C01CE010E947405800FD4
:100C3000911FDF91CF911F910F91089561E08AE09C
:100C40000E94DA0261E08AE00E94A1028CB5806114
:100C50008CBD8CB580648CBD61E08DE00E94A102EA
:100C600061E08BE00C94A102811103C08CB580621D
:100C700002C08CB58F7D8CBD08959CB5937F982B59
:100C80009CBD08952CB5982F93702C7F922B9CBD02
:100C90009DB582FB882780F99E7F982B9DBD089586
:100CA000A1E21A2EAA1BBB1BFD010DC0AA1FBB1F70
:100CB000EE1FFF1FA217B307E407F50720F0A21BE2
:100CC000B30BE40BF50B661F771F881F991F1A944F
:100CD00069F760957095809590959B01AC01BD0179
:100CE000CF010895EE0FFF1F0590F491E02D0994B8
:040CF000F894FFCFA6
:100CF40000002B022000202C20726573657474653B
:100D04006421004469726563746C792053454E20F4
:100D14006C6F770057616974696E6720666F722023
:100D2400414E5420746F2061636B20616E642074A3
:100D34006F67676C652053454E0073796E63627903
:100D440074653A20002E002A000A0A0A0A626F6FAC
:100D5400700A0A0A0A0A000000000093032D0539EC
:080D64000366034B0388030042
:00000001FF
